{
	"data": {
		"bytecode": {
			"linkReferences": {},
			"object": "608060405234801562000010575f80fd5b50335f73ffffffffffffffffffffffffffffffffffffffff168173ffffffffffffffffffffffffffffffffffffffff160362000085575f6040517f1e4fbdf70000000000000000000000000000000000000000000000000000000081526004016200007c9190620001cd565b60405180910390fd5b6200009681620000c960201b60201c565b505f8060146101000a81548160ff02191690836005811115620000be57620000bd620001e8565b5b021790555062000215565b5f805f9054906101000a900473ffffffffffffffffffffffffffffffffffffffff169050815f806101000a81548173ffffffffffffffffffffffffffffffffffffffff021916908373ffffffffffffffffffffffffffffffffffffffff1602179055508173ffffffffffffffffffffffffffffffffffffffff168173ffffffffffffffffffffffffffffffffffffffff167f8be0079c531659141344cd1fd0a4f28419497f9722a3daafe3b4186f6b6457e060405160405180910390a35050565b5f73ffffffffffffffffffffffffffffffffffffffff82169050919050565b5f620001b5826200018a565b9050919050565b620001c781620001a9565b82525050565b5f602082019050620001e25f830184620001bc565b92915050565b7f4e487b71000000000000000000000000000000000000000000000000000000005f52602160045260245ffd5b611bfe80620002235f395ff3fe608060405234801561000f575f80fd5b50600436106100fe575f3560e01c80638e7ea5b211610095578063c64963c511610064578063c64963c51461023b578063e09b8c7914610259578063ee74c67814610263578063f2fde38b1461026d576100fe565b80638e7ea5b2146101c3578063a1edffa2146101e1578063a3ec138d146101ff578063a7bfab1614610231576100fe565b806338db6dd3116100d157806338db6dd3146101755780636c29744514610191578063715018a61461019b5780638da5cb5b146101a5576100fe565b80630121b93f14610102578063013cf08b1461011e5780632f95355b1461014f578063378a21781461016b575b5f80fd5b61011c6004803603810190610117919061118e565b610289565b005b6101386004803603810190610133919061118e565b610585565b604051610146929190611252565b60405180910390f35b610169600480360381019061016491906113ac565b61063a565b005b610173610758565b005b61018f600480360381019061018a919061144d565b6108b6565b005b610199610a5d565b005b6101a3610b43565b005b6101ad610b56565b6040516101ba9190611487565b60405180910390f35b6101cb610b7d565b6040516101d891906114a0565b60405180910390f35b6101e9610c71565b6040516101f6919061152c565b60405180910390f35b6102196004803603810190610214919061144d565b610c83565b6040516102289392919061155f565b60405180910390f35b610239610cc1565b005b610243610da7565b60405161025091906114a0565b60405180910390f35b610261610dad565b005b61026b610e91565b005b6102876004803603810190610282919061144d565b610f77565b005b600380600581111561029e5761029d6114b9565b5b5f60149054906101000a900460ff1660058111156102bf576102be6114b9565b5b146102ff576040517f08c379a00000000000000000000000000000000000000000000000000000000081526004016102f6906115de565b60405180910390fd5b60025f3373ffffffffffffffffffffffffffffffffffffffff1673ffffffffffffffffffffffffffffffffffffffff1681526020019081526020015f205f015f9054906101000a900460ff1661038a576040517f08c379a000000000000000000000000000000000000000000000000000000000815260040161038190611646565b60405180910390fd5b60025f3373ffffffffffffffffffffffffffffffffffffffff1673ffffffffffffffffffffffffffffffffffffffff1681526020019081526020015f205f0160019054906101000a900460ff1615610417576040517f08c379a000000000000000000000000000000000000000000000000000000000815260040161040e906116ae565b60405180910390fd5b600180549050821061045e576040517f08c379a000000000000000000000000000000000000000000000000000000000815260040161045590611716565b60405180910390fd5b600160025f3373ffffffffffffffffffffffffffffffffffffffff1673ffffffffffffffffffffffffffffffffffffffff1681526020019081526020015f205f0160016101000a81548160ff0219169083151502179055508160025f3373ffffffffffffffffffffffffffffffffffffffff1673ffffffffffffffffffffffffffffffffffffffff1681526020019081526020015f20600101819055506001828154811061050f5761050e611734565b5b905f5260205f2090600202016001015f81548092919061052e9061178e565b91905055503373ffffffffffffffffffffffffffffffffffffffff167f4d99b957a2bc29a30ebd96a7be8e68fe50a3c701db28a91436490b7d53870ca48360405161057991906114a0565b60405180910390a25050565b60018181548110610594575f80fd5b905f5260205f2090600202015f91509050805f0180546105b390611802565b80601f01602080910402602001604051908101604052809291908181526020018280546105df90611802565b801561062a5780601f106106015761010080835404028352916020019161062a565b820191905f5260205f20905b81548152906001019060200180831161060d57829003601f168201915b5050505050908060010154905082565b600180600581111561064f5761064e6114b9565b5b5f60149054906101000a900460ff1660058111156106705761066f6114b9565b5b146106b0576040517f08c379a00000000000000000000000000000000000000000000000000000000081526004016106a7906115de565b60405180910390fd5b600160405180604001604052808481526020015f815250908060018154018082558091505060019003905f5260205f2090600202015f909190919091505f820151815f01908161070091906119cf565b506020820151816001015550507f92e393e9b54e2f801d3ea4beb0c5e71a21cc34a5d34b77d0fb8a3aa1650dc18f6001808054905061073f9190611a9e565b60405161074c91906114a0565b60405180910390a15050565b610760610ffb565b6004806005811115610775576107746114b9565b5b5f60149054906101000a900460ff166005811115610796576107956114b9565b5b146107d6576040517f08c379a00000000000000000000000000000000000000000000000000000000081526004016107cd906115de565b60405180910390fd5b60055f60146101000a81548160ff021916908360058111156107fb576107fa6114b9565b5b02179055507f0a97a4ee45751e2abf3e4fc8946939630b11b371ea8ae39ccdc3056e98f5cc3f60046005604051610833929190611ad1565b60405180910390a15f805b6001805490508110156108b15781600182815481106108605761085f611734565b5b905f5260205f2090600202016001015411156108a4576001818154811061088a57610889611734565b5b905f5260205f209060020201600101549150806003819055505b808060010191505061083e565b505050565b5f8060058111156108ca576108c96114b9565b5b5f60149054906101000a900460ff1660058111156108eb576108ea6114b9565b5b1461092b576040517f08c379a0000000000000000000000000000000000000000000000000000000008152600401610922906115de565b60405180910390fd5b610933610ffb565b60025f8373ffffffffffffffffffffffffffffffffffffffff1673ffffffffffffffffffffffffffffffffffffffff1681526020019081526020015f205f015f9054906101000a900460ff16156109bf576040517f08c379a00000000000000000000000000000000000000000000000000000000081526004016109b690611b42565b60405180910390fd5b600160025f8473ffffffffffffffffffffffffffffffffffffffff1673ffffffffffffffffffffffffffffffffffffffff1681526020019081526020015f205f015f6101000a81548160ff0219169083151502179055508173ffffffffffffffffffffffffffffffffffffffff167fb6be2187d059cc2a55fe29e0e503b566e1e0f8c8780096e185429350acffd3dd60405160405180910390a25050565b610a65610ffb565b6001806005811115610a7a57610a796114b9565b5b5f60149054906101000a900460ff166005811115610a9b57610a9a6114b9565b5b14610adb576040517f08c379a0000000000000000000000000000000000000000000000000000000008152600401610ad2906115de565b60405180910390fd5b60025f60146101000a81548160ff02191690836005811115610b0057610aff6114b9565b5b02179055507f0a97a4ee45751e2abf3e4fc8946939630b11b371ea8ae39ccdc3056e98f5cc3f60016002604051610b38929190611ad1565b60405180910390a150565b610b4b610ffb565b610b545f611082565b565b5f805f9054906101000a900473ffffffffffffffffffffffffffffffffffffffff16905090565b5f6005806005811115610b9357610b926114b9565b5b5f60149054906101000a900460ff166005811115610bb457610bb36114b9565b5b14610bf4576040517f08c379a0000000000000000000000000000000000000000000000000000000008152600401610beb906115de565b60405180910390fd5b600580811115610c0757610c066114b9565b5b5f60149054906101000a900460ff166005811115610c2857610c276114b9565b5b14610c68576040517f08c379a0000000000000000000000000000000000000000000000000000000008152600401610c5f90611baa565b60405180910390fd5b60035491505090565b5f60149054906101000a900460ff1681565b6002602052805f5260405f205f91509050805f015f9054906101000a900460ff1690805f0160019054906101000a900460ff16908060010154905083565b610cc9610ffb565b6003806005811115610cde57610cdd6114b9565b5b5f60149054906101000a900460ff166005811115610cff57610cfe6114b9565b5b14610d3f576040517f08c379a0000000000000000000000000000000000000000000000000000000008152600401610d36906115de565b60405180910390fd5b60045f60146101000a81548160ff02191690836005811115610d6457610d636114b9565b5b02179055507f0a97a4ee45751e2abf3e4fc8946939630b11b371ea8ae39ccdc3056e98f5cc3f60036004604051610d9c929190611ad1565b60405180910390a150565b60035481565b610db5610ffb565b5f806005811115610dc957610dc86114b9565b5b5f60149054906101000a900460ff166005811115610dea57610de96114b9565b5b14610e2a576040517f08c379a0000000000000000000000000000000000000000000000000000000008152600401610e21906115de565b60405180910390fd5b60015f60146101000a81548160ff02191690836005811115610e4f57610e4e6114b9565b5b02179055507f0a97a4ee45751e2abf3e4fc8946939630b11b371ea8ae39ccdc3056e98f5cc3f5f6001604051610e86929190611ad1565b60405180910390a150565b610e99610ffb565b6002806005811115610eae57610ead6114b9565b5b5f60149054906101000a900460ff166005811115610ecf57610ece6114b9565b5b14610f0f576040517f08c379a0000000000000000000000000000000000000000000000000000000008152600401610f06906115de565b60405180910390fd5b60035f60146101000a81548160ff02191690836005811115610f3457610f336114b9565b5b02179055507f0a97a4ee45751e2abf3e4fc8946939630b11b371ea8ae39ccdc3056e98f5cc3f60026003604051610f6c929190611ad1565b60405180910390a150565b610f7f610ffb565b5f73ffffffffffffffffffffffffffffffffffffffff168173ffffffffffffffffffffffffffffffffffffffff1603610fef575f6040517f1e4fbdf7000000000000000000000000000000000000000000000000000000008152600401610fe69190611487565b60405180910390fd5b610ff881611082565b50565b611003611143565b73ffffffffffffffffffffffffffffffffffffffff16611021610b56565b73ffffffffffffffffffffffffffffffffffffffff161461108057611044611143565b6040517f118cdaa70000000000000000000000000000000000000000000000000000000081526004016110779190611487565b60405180910390fd5b565b5f805f9054906101000a900473ffffffffffffffffffffffffffffffffffffffff169050815f806101000a81548173ffffffffffffffffffffffffffffffffffffffff021916908373ffffffffffffffffffffffffffffffffffffffff1602179055508173ffffffffffffffffffffffffffffffffffffffff168173ffffffffffffffffffffffffffffffffffffffff167f8be0079c531659141344cd1fd0a4f28419497f9722a3daafe3b4186f6b6457e060405160405180910390a35050565b5f33905090565b5f604051905090565b5f80fd5b5f80fd5b5f819050919050565b61116d8161115b565b8114611177575f80fd5b50565b5f8135905061118881611164565b92915050565b5f602082840312156111a3576111a2611153565b5b5f6111b08482850161117a565b91505092915050565b5f81519050919050565b5f82825260208201905092915050565b5f5b838110156111f05780820151818401526020810190506111d5565b5f8484015250505050565b5f601f19601f8301169050919050565b5f611215826111b9565b61121f81856111c3565b935061122f8185602086016111d3565b611238816111fb565b840191505092915050565b61124c8161115b565b82525050565b5f6040820190508181035f83015261126a818561120b565b90506112796020830184611243565b9392505050565b5f80fd5b5f80fd5b7f4e487b71000000000000000000000000000000000000000000000000000000005f52604160045260245ffd5b6112be826111fb565b810181811067ffffffffffffffff821117156112dd576112dc611288565b5b80604052505050565b5f6112ef61114a565b90506112fb82826112b5565b919050565b5f67ffffffffffffffff82111561131a57611319611288565b5b611323826111fb565b9050602081019050919050565b828183375f83830152505050565b5f61135061134b84611300565b6112e6565b90508281526020810184848401111561136c5761136b611284565b5b611377848285611330565b509392505050565b5f82601f83011261139357611392611280565b5b81356113a384826020860161133e565b91505092915050565b5f602082840312156113c1576113c0611153565b5b5f82013567ffffffffffffffff8111156113de576113dd611157565b5b6113ea8482850161137f565b91505092915050565b5f73ffffffffffffffffffffffffffffffffffffffff82169050919050565b5f61141c826113f3565b9050919050565b61142c81611412565b8114611436575f80fd5b50565b5f8135905061144781611423565b92915050565b5f6020828403121561146257611461611153565b5b5f61146f84828501611439565b91505092915050565b61148181611412565b82525050565b5f60208201905061149a5f830184611478565b92915050565b5f6020820190506114b35f830184611243565b92915050565b7f4e487b71000000000000000000000000000000000000000000000000000000005f52602160045260245ffd5b600681106114f7576114f66114b9565b5b50565b5f819050611507826114e6565b919050565b5f611516826114fa565b9050919050565b6115268161150c565b82525050565b5f60208201905061153f5f83018461151d565b92915050565b5f8115159050919050565b61155981611545565b82525050565b5f6060820190506115725f830186611550565b61157f6020830185611550565b61158c6040830184611243565b949350505050565b7f496e76616c696420776f726b666c6f77207374617475730000000000000000005f82015250565b5f6115c86017836111c3565b91506115d382611594565b602082019050919050565b5f6020820190508181035f8301526115f5816115bc565b9050919050565b7f566f746572206973206e6f7420726567697374657265640000000000000000005f82015250565b5f6116306017836111c3565b915061163b826115fc565b602082019050919050565b5f6020820190508181035f83015261165d81611624565b9050919050565b7f566f7465722068617320616c726561647920766f7465640000000000000000005f82015250565b5f6116986017836111c3565b91506116a382611664565b602082019050919050565b5f6020820190508181035f8301526116c58161168c565b9050919050565b7f496e76616c69642070726f706f73616c204944000000000000000000000000005f82015250565b5f6117006013836111c3565b915061170b826116cc565b602082019050919050565b5f6020820190508181035f83015261172d816116f4565b9050919050565b7f4e487b71000000000000000000000000000000000000000000000000000000005f52603260045260245ffd5b7f4e487b71000000000000000000000000000000000000000000000000000000005f52601160045260245ffd5b5f6117988261115b565b91507fffffffffffffffffffffffffffffffffffffffffffffffffffffffffffffffff82036117ca576117c9611761565b5b600182019050919050565b7f4e487b71000000000000000000000000000000000000000000000000000000005f52602260045260245ffd5b5f600282049050600182168061181957607f821691505b60208210810361182c5761182b6117d5565b5b50919050565b5f819050815f5260205f209050919050565b5f6020601f8301049050919050565b5f82821b905092915050565b5f6008830261188e7fffffffffffffffffffffffffffffffffffffffffffffffffffffffffffffffff82611853565b6118988683611853565b95508019841693508086168417925050509392505050565b5f819050919050565b5f6118d36118ce6118c98461115b565b6118b0565b61115b565b9050919050565b5f819050919050565b6118ec836118b9565b6119006118f8826118da565b84845461185f565b825550505050565b5f90565b611914611908565b61191f8184846118e3565b505050565b5b81811015611942576119375f8261190c565b600181019050611925565b5050565b601f8211156119875761195881611832565b61196184611844565b81016020851015611970578190505b61198461197c85611844565b830182611924565b50505b505050565b5f82821c905092915050565b5f6119a75f198460080261198c565b1980831691505092915050565b5f6119bf8383611998565b9150826002028217905092915050565b6119d8826111b9565b67ffffffffffffffff8111156119f1576119f0611288565b5b6119fb8254611802565b611a06828285611946565b5f60209050601f831160018114611a37575f8415611a25578287015190505b611a2f85826119b4565b865550611a96565b601f198416611a4586611832565b5f5b82811015611a6c57848901518255600182019150602085019450602081019050611a47565b86831015611a895784890151611a85601f891682611998565b8355505b6001600288020188555050505b505050505050565b5f611aa88261115b565b9150611ab38361115b565b9250828203905081811115611acb57611aca611761565b5b92915050565b5f604082019050611ae45f83018561151d565b611af1602083018461151d565b9392505050565b7f566f74657220697320616c7265616479207265676973746572656400000000005f82015250565b5f611b2c601b836111c3565b9150611b3782611af8565b602082019050919050565b5f6020820190508181035f830152611b5981611b20565b9050919050565b7f566f74696e67206973206e6f742074616c6c69656420796574000000000000005f82015250565b5f611b946019836111c3565b9150611b9f82611b60565b602082019050919050565b5f6020820190508181035f830152611bc181611b88565b905091905056fea26469706673582212209a6347d5ac14d823d85d78b9137b0177749edf263e54d424ce041472b3c3f23c64736f6c63430008160033",
			"opcodes": "PUSH1 0x80 PUSH1 0x40 MSTORE CALLVALUE DUP1 ISZERO PUSH3 0x10 JUMPI PUSH0 DUP1 REVERT JUMPDEST POP CALLER PUSH0 PUSH20 0xFFFFFFFFFFFFFFFFFFFFFFFFFFFFFFFFFFFFFFFF AND DUP2 PUSH20 0xFFFFFFFFFFFFFFFFFFFFFFFFFFFFFFFFFFFFFFFF AND SUB PUSH3 0x85 JUMPI PUSH0 PUSH1 0x40 MLOAD PUSH32 0x1E4FBDF700000000000000000000000000000000000000000000000000000000 DUP2 MSTORE PUSH1 0x4 ADD PUSH3 0x7C SWAP2 SWAP1 PUSH3 0x1CD JUMP JUMPDEST PUSH1 0x40 MLOAD DUP1 SWAP2 SUB SWAP1 REVERT JUMPDEST PUSH3 0x96 DUP2 PUSH3 0xC9 PUSH1 0x20 SHL PUSH1 0x20 SHR JUMP JUMPDEST POP PUSH0 DUP1 PUSH1 0x14 PUSH2 0x100 EXP DUP2 SLOAD DUP2 PUSH1 0xFF MUL NOT AND SWAP1 DUP4 PUSH1 0x5 DUP2 GT ISZERO PUSH3 0xBE JUMPI PUSH3 0xBD PUSH3 0x1E8 JUMP JUMPDEST JUMPDEST MUL OR SWAP1 SSTORE POP PUSH3 0x215 JUMP JUMPDEST PUSH0 DUP1 PUSH0 SWAP1 SLOAD SWAP1 PUSH2 0x100 EXP SWAP1 DIV PUSH20 0xFFFFFFFFFFFFFFFFFFFFFFFFFFFFFFFFFFFFFFFF AND SWAP1 POP DUP2 PUSH0 DUP1 PUSH2 0x100 EXP DUP2 SLOAD DUP2 PUSH20 0xFFFFFFFFFFFFFFFFFFFFFFFFFFFFFFFFFFFFFFFF MUL NOT AND SWAP1 DUP4 PUSH20 0xFFFFFFFFFFFFFFFFFFFFFFFFFFFFFFFFFFFFFFFF AND MUL OR SWAP1 SSTORE POP DUP2 PUSH20 0xFFFFFFFFFFFFFFFFFFFFFFFFFFFFFFFFFFFFFFFF AND DUP2 PUSH20 0xFFFFFFFFFFFFFFFFFFFFFFFFFFFFFFFFFFFFFFFF AND PUSH32 0x8BE0079C531659141344CD1FD0A4F28419497F9722A3DAAFE3B4186F6B6457E0 PUSH1 0x40 MLOAD PUSH1 0x40 MLOAD DUP1 SWAP2 SUB SWAP1 LOG3 POP POP JUMP JUMPDEST PUSH0 PUSH20 0xFFFFFFFFFFFFFFFFFFFFFFFFFFFFFFFFFFFFFFFF DUP3 AND SWAP1 POP SWAP2 SWAP1 POP JUMP JUMPDEST PUSH0 PUSH3 0x1B5 DUP3 PUSH3 0x18A JUMP JUMPDEST SWAP1 POP SWAP2 SWAP1 POP JUMP JUMPDEST PUSH3 0x1C7 DUP2 PUSH3 0x1A9 JUMP JUMPDEST DUP3 MSTORE POP POP JUMP JUMPDEST PUSH0 PUSH1 0x20 DUP3 ADD SWAP1 POP PUSH3 0x1E2 PUSH0 DUP4 ADD DUP5 PUSH3 0x1BC JUMP JUMPDEST SWAP3 SWAP2 POP POP JUMP JUMPDEST PUSH32 0x4E487B7100000000000000000000000000000000000000000000000000000000 PUSH0 MSTORE PUSH1 0x21 PUSH1 0x4 MSTORE PUSH1 0x24 PUSH0 REVERT JUMPDEST PUSH2 0x1BFE DUP1 PUSH3 0x223 PUSH0 CODECOPY PUSH0 RETURN INVALID PUSH1 0x80 PUSH1 0x40 MSTORE CALLVALUE DUP1 ISZERO PUSH2 0xF JUMPI PUSH0 DUP1 REVERT JUMPDEST POP PUSH1 0x4 CALLDATASIZE LT PUSH2 0xFE JUMPI PUSH0 CALLDATALOAD PUSH1 0xE0 SHR DUP1 PUSH4 0x8E7EA5B2 GT PUSH2 0x95 JUMPI DUP1 PUSH4 0xC64963C5 GT PUSH2 0x64 JUMPI DUP1 PUSH4 0xC64963C5 EQ PUSH2 0x23B JUMPI DUP1 PUSH4 0xE09B8C79 EQ PUSH2 0x259 JUMPI DUP1 PUSH4 0xEE74C678 EQ PUSH2 0x263 JUMPI DUP1 PUSH4 0xF2FDE38B EQ PUSH2 0x26D JUMPI PUSH2 0xFE JUMP JUMPDEST DUP1 PUSH4 0x8E7EA5B2 EQ PUSH2 0x1C3 JUMPI DUP1 PUSH4 0xA1EDFFA2 EQ PUSH2 0x1E1 JUMPI DUP1 PUSH4 0xA3EC138D EQ PUSH2 0x1FF JUMPI DUP1 PUSH4 0xA7BFAB16 EQ PUSH2 0x231 JUMPI PUSH2 0xFE JUMP JUMPDEST DUP1 PUSH4 0x38DB6DD3 GT PUSH2 0xD1 JUMPI DUP1 PUSH4 0x38DB6DD3 EQ PUSH2 0x175 JUMPI DUP1 PUSH4 0x6C297445 EQ PUSH2 0x191 JUMPI DUP1 PUSH4 0x715018A6 EQ PUSH2 0x19B JUMPI DUP1 PUSH4 0x8DA5CB5B EQ PUSH2 0x1A5 JUMPI PUSH2 0xFE JUMP JUMPDEST DUP1 PUSH4 0x121B93F EQ PUSH2 0x102 JUMPI DUP1 PUSH4 0x13CF08B EQ PUSH2 0x11E JUMPI DUP1 PUSH4 0x2F95355B EQ PUSH2 0x14F JUMPI DUP1 PUSH4 0x378A2178 EQ PUSH2 0x16B JUMPI JUMPDEST PUSH0 DUP1 REVERT JUMPDEST PUSH2 0x11C PUSH1 0x4 DUP1 CALLDATASIZE SUB DUP2 ADD SWAP1 PUSH2 0x117 SWAP2 SWAP1 PUSH2 0x118E JUMP JUMPDEST PUSH2 0x289 JUMP JUMPDEST STOP JUMPDEST PUSH2 0x138 PUSH1 0x4 DUP1 CALLDATASIZE SUB DUP2 ADD SWAP1 PUSH2 0x133 SWAP2 SWAP1 PUSH2 0x118E JUMP JUMPDEST PUSH2 0x585 JUMP JUMPDEST PUSH1 0x40 MLOAD PUSH2 0x146 SWAP3 SWAP2 SWAP1 PUSH2 0x1252 JUMP JUMPDEST PUSH1 0x40 MLOAD DUP1 SWAP2 SUB SWAP1 RETURN JUMPDEST PUSH2 0x169 PUSH1 0x4 DUP1 CALLDATASIZE SUB DUP2 ADD SWAP1 PUSH2 0x164 SWAP2 SWAP1 PUSH2 0x13AC JUMP JUMPDEST PUSH2 0x63A JUMP JUMPDEST STOP JUMPDEST PUSH2 0x173 PUSH2 0x758 JUMP JUMPDEST STOP JUMPDEST PUSH2 0x18F PUSH1 0x4 DUP1 CALLDATASIZE SUB DUP2 ADD SWAP1 PUSH2 0x18A SWAP2 SWAP1 PUSH2 0x144D JUMP JUMPDEST PUSH2 0x8B6 JUMP JUMPDEST STOP JUMPDEST PUSH2 0x199 PUSH2 0xA5D JUMP JUMPDEST STOP JUMPDEST PUSH2 0x1A3 PUSH2 0xB43 JUMP JUMPDEST STOP JUMPDEST PUSH2 0x1AD PUSH2 0xB56 JUMP JUMPDEST PUSH1 0x40 MLOAD PUSH2 0x1BA SWAP2 SWAP1 PUSH2 0x1487 JUMP JUMPDEST PUSH1 0x40 MLOAD DUP1 SWAP2 SUB SWAP1 RETURN JUMPDEST PUSH2 0x1CB PUSH2 0xB7D JUMP JUMPDEST PUSH1 0x40 MLOAD PUSH2 0x1D8 SWAP2 SWAP1 PUSH2 0x14A0 JUMP JUMPDEST PUSH1 0x40 MLOAD DUP1 SWAP2 SUB SWAP1 RETURN JUMPDEST PUSH2 0x1E9 PUSH2 0xC71 JUMP JUMPDEST PUSH1 0x40 MLOAD PUSH2 0x1F6 SWAP2 SWAP1 PUSH2 0x152C JUMP JUMPDEST PUSH1 0x40 MLOAD DUP1 SWAP2 SUB SWAP1 RETURN JUMPDEST PUSH2 0x219 PUSH1 0x4 DUP1 CALLDATASIZE SUB DUP2 ADD SWAP1 PUSH2 0x214 SWAP2 SWAP1 PUSH2 0x144D JUMP JUMPDEST PUSH2 0xC83 JUMP JUMPDEST PUSH1 0x40 MLOAD PUSH2 0x228 SWAP4 SWAP3 SWAP2 SWAP1 PUSH2 0x155F JUMP JUMPDEST PUSH1 0x40 MLOAD DUP1 SWAP2 SUB SWAP1 RETURN JUMPDEST PUSH2 0x239 PUSH2 0xCC1 JUMP JUMPDEST STOP JUMPDEST PUSH2 0x243 PUSH2 0xDA7 JUMP JUMPDEST PUSH1 0x40 MLOAD PUSH2 0x250 SWAP2 SWAP1 PUSH2 0x14A0 JUMP JUMPDEST PUSH1 0x40 MLOAD DUP1 SWAP2 SUB SWAP1 RETURN JUMPDEST PUSH2 0x261 PUSH2 0xDAD JUMP JUMPDEST STOP JUMPDEST PUSH2 0x26B PUSH2 0xE91 JUMP JUMPDEST STOP JUMPDEST PUSH2 0x287 PUSH1 0x4 DUP1 CALLDATASIZE SUB DUP2 ADD SWAP1 PUSH2 0x282 SWAP2 SWAP1 PUSH2 0x144D JUMP JUMPDEST PUSH2 0xF77 JUMP JUMPDEST STOP JUMPDEST PUSH1 0x3 DUP1 PUSH1 0x5 DUP2 GT ISZERO PUSH2 0x29E JUMPI PUSH2 0x29D PUSH2 0x14B9 JUMP JUMPDEST JUMPDEST PUSH0 PUSH1 0x14 SWAP1 SLOAD SWAP1 PUSH2 0x100 EXP SWAP1 DIV PUSH1 0xFF AND PUSH1 0x5 DUP2 GT ISZERO PUSH2 0x2BF JUMPI PUSH2 0x2BE PUSH2 0x14B9 JUMP JUMPDEST JUMPDEST EQ PUSH2 0x2FF JUMPI PUSH1 0x40 MLOAD PUSH32 0x8C379A000000000000000000000000000000000000000000000000000000000 DUP2 MSTORE PUSH1 0x4 ADD PUSH2 0x2F6 SWAP1 PUSH2 0x15DE JUMP JUMPDEST PUSH1 0x40 MLOAD DUP1 SWAP2 SUB SWAP1 REVERT JUMPDEST PUSH1 0x2 PUSH0 CALLER PUSH20 0xFFFFFFFFFFFFFFFFFFFFFFFFFFFFFFFFFFFFFFFF AND PUSH20 0xFFFFFFFFFFFFFFFFFFFFFFFFFFFFFFFFFFFFFFFF AND DUP2 MSTORE PUSH1 0x20 ADD SWAP1 DUP2 MSTORE PUSH1 0x20 ADD PUSH0 KECCAK256 PUSH0 ADD PUSH0 SWAP1 SLOAD SWAP1 PUSH2 0x100 EXP SWAP1 DIV PUSH1 0xFF AND PUSH2 0x38A JUMPI PUSH1 0x40 MLOAD PUSH32 0x8C379A000000000000000000000000000000000000000000000000000000000 DUP2 MSTORE PUSH1 0x4 ADD PUSH2 0x381 SWAP1 PUSH2 0x1646 JUMP JUMPDEST PUSH1 0x40 MLOAD DUP1 SWAP2 SUB SWAP1 REVERT JUMPDEST PUSH1 0x2 PUSH0 CALLER PUSH20 0xFFFFFFFFFFFFFFFFFFFFFFFFFFFFFFFFFFFFFFFF AND PUSH20 0xFFFFFFFFFFFFFFFFFFFFFFFFFFFFFFFFFFFFFFFF AND DUP2 MSTORE PUSH1 0x20 ADD SWAP1 DUP2 MSTORE PUSH1 0x20 ADD PUSH0 KECCAK256 PUSH0 ADD PUSH1 0x1 SWAP1 SLOAD SWAP1 PUSH2 0x100 EXP SWAP1 DIV PUSH1 0xFF AND ISZERO PUSH2 0x417 JUMPI PUSH1 0x40 MLOAD PUSH32 0x8C379A000000000000000000000000000000000000000000000000000000000 DUP2 MSTORE PUSH1 0x4 ADD PUSH2 0x40E SWAP1 PUSH2 0x16AE JUMP JUMPDEST PUSH1 0x40 MLOAD DUP1 SWAP2 SUB SWAP1 REVERT JUMPDEST PUSH1 0x1 DUP1 SLOAD SWAP1 POP DUP3 LT PUSH2 0x45E JUMPI PUSH1 0x40 MLOAD PUSH32 0x8C379A000000000000000000000000000000000000000000000000000000000 DUP2 MSTORE PUSH1 0x4 ADD PUSH2 0x455 SWAP1 PUSH2 0x1716 JUMP JUMPDEST PUSH1 0x40 MLOAD DUP1 SWAP2 SUB SWAP1 REVERT JUMPDEST PUSH1 0x1 PUSH1 0x2 PUSH0 CALLER PUSH20 0xFFFFFFFFFFFFFFFFFFFFFFFFFFFFFFFFFFFFFFFF AND PUSH20 0xFFFFFFFFFFFFFFFFFFFFFFFFFFFFFFFFFFFFFFFF AND DUP2 MSTORE PUSH1 0x20 ADD SWAP1 DUP2 MSTORE PUSH1 0x20 ADD PUSH0 KECCAK256 PUSH0 ADD PUSH1 0x1 PUSH2 0x100 EXP DUP2 SLOAD DUP2 PUSH1 0xFF MUL NOT AND SWAP1 DUP4 ISZERO ISZERO MUL OR SWAP1 SSTORE POP DUP2 PUSH1 0x2 PUSH0 CALLER PUSH20 0xFFFFFFFFFFFFFFFFFFFFFFFFFFFFFFFFFFFFFFFF AND PUSH20 0xFFFFFFFFFFFFFFFFFFFFFFFFFFFFFFFFFFFFFFFF AND DUP2 MSTORE PUSH1 0x20 ADD SWAP1 DUP2 MSTORE PUSH1 0x20 ADD PUSH0 KECCAK256 PUSH1 0x1 ADD DUP2 SWAP1 SSTORE POP PUSH1 0x1 DUP3 DUP2 SLOAD DUP2 LT PUSH2 0x50F JUMPI PUSH2 0x50E PUSH2 0x1734 JUMP JUMPDEST JUMPDEST SWAP1 PUSH0 MSTORE PUSH1 0x20 PUSH0 KECCAK256 SWAP1 PUSH1 0x2 MUL ADD PUSH1 0x1 ADD PUSH0 DUP2 SLOAD DUP1 SWAP3 SWAP2 SWAP1 PUSH2 0x52E SWAP1 PUSH2 0x178E JUMP JUMPDEST SWAP2 SWAP1 POP SSTORE POP CALLER PUSH20 0xFFFFFFFFFFFFFFFFFFFFFFFFFFFFFFFFFFFFFFFF AND PUSH32 0x4D99B957A2BC29A30EBD96A7BE8E68FE50A3C701DB28A91436490B7D53870CA4 DUP4 PUSH1 0x40 MLOAD PUSH2 0x579 SWAP2 SWAP1 PUSH2 0x14A0 JUMP JUMPDEST PUSH1 0x40 MLOAD DUP1 SWAP2 SUB SWAP1 LOG2 POP POP JUMP JUMPDEST PUSH1 0x1 DUP2 DUP2 SLOAD DUP2 LT PUSH2 0x594 JUMPI PUSH0 DUP1 REVERT JUMPDEST SWAP1 PUSH0 MSTORE PUSH1 0x20 PUSH0 KECCAK256 SWAP1 PUSH1 0x2 MUL ADD PUSH0 SWAP2 POP SWAP1 POP DUP1 PUSH0 ADD DUP1 SLOAD PUSH2 0x5B3 SWAP1 PUSH2 0x1802 JUMP JUMPDEST DUP1 PUSH1 0x1F ADD PUSH1 0x20 DUP1 SWAP2 DIV MUL PUSH1 0x20 ADD PUSH1 0x40 MLOAD SWAP1 DUP2 ADD PUSH1 0x40 MSTORE DUP1 SWAP3 SWAP2 SWAP1 DUP2 DUP2 MSTORE PUSH1 0x20 ADD DUP3 DUP1 SLOAD PUSH2 0x5DF SWAP1 PUSH2 0x1802 JUMP JUMPDEST DUP1 ISZERO PUSH2 0x62A JUMPI DUP1 PUSH1 0x1F LT PUSH2 0x601 JUMPI PUSH2 0x100 DUP1 DUP4 SLOAD DIV MUL DUP4 MSTORE SWAP2 PUSH1 0x20 ADD SWAP2 PUSH2 0x62A JUMP JUMPDEST DUP3 ADD SWAP2 SWAP1 PUSH0 MSTORE PUSH1 0x20 PUSH0 KECCAK256 SWAP1 JUMPDEST DUP2 SLOAD DUP2 MSTORE SWAP1 PUSH1 0x1 ADD SWAP1 PUSH1 0x20 ADD DUP1 DUP4 GT PUSH2 0x60D JUMPI DUP3 SWAP1 SUB PUSH1 0x1F AND DUP3 ADD SWAP2 JUMPDEST POP POP POP POP POP SWAP1 DUP1 PUSH1 0x1 ADD SLOAD SWAP1 POP DUP3 JUMP JUMPDEST PUSH1 0x1 DUP1 PUSH1 0x5 DUP2 GT ISZERO PUSH2 0x64F JUMPI PUSH2 0x64E PUSH2 0x14B9 JUMP JUMPDEST JUMPDEST PUSH0 PUSH1 0x14 SWAP1 SLOAD SWAP1 PUSH2 0x100 EXP SWAP1 DIV PUSH1 0xFF AND PUSH1 0x5 DUP2 GT ISZERO PUSH2 0x670 JUMPI PUSH2 0x66F PUSH2 0x14B9 JUMP JUMPDEST JUMPDEST EQ PUSH2 0x6B0 JUMPI PUSH1 0x40 MLOAD PUSH32 0x8C379A000000000000000000000000000000000000000000000000000000000 DUP2 MSTORE PUSH1 0x4 ADD PUSH2 0x6A7 SWAP1 PUSH2 0x15DE JUMP JUMPDEST PUSH1 0x40 MLOAD DUP1 SWAP2 SUB SWAP1 REVERT JUMPDEST PUSH1 0x1 PUSH1 0x40 MLOAD DUP1 PUSH1 0x40 ADD PUSH1 0x40 MSTORE DUP1 DUP5 DUP2 MSTORE PUSH1 0x20 ADD PUSH0 DUP2 MSTORE POP SWAP1 DUP1 PUSH1 0x1 DUP2 SLOAD ADD DUP1 DUP3 SSTORE DUP1 SWAP2 POP POP PUSH1 0x1 SWAP1 SUB SWAP1 PUSH0 MSTORE PUSH1 0x20 PUSH0 KECCAK256 SWAP1 PUSH1 0x2 MUL ADD PUSH0 SWAP1 SWAP2 SWAP1 SWAP2 SWAP1 SWAP2 POP PUSH0 DUP3 ADD MLOAD DUP2 PUSH0 ADD SWAP1 DUP2 PUSH2 0x700 SWAP2 SWAP1 PUSH2 0x19CF JUMP JUMPDEST POP PUSH1 0x20 DUP3 ADD MLOAD DUP2 PUSH1 0x1 ADD SSTORE POP POP PUSH32 0x92E393E9B54E2F801D3EA4BEB0C5E71A21CC34A5D34B77D0FB8A3AA1650DC18F PUSH1 0x1 DUP1 DUP1 SLOAD SWAP1 POP PUSH2 0x73F SWAP2 SWAP1 PUSH2 0x1A9E JUMP JUMPDEST PUSH1 0x40 MLOAD PUSH2 0x74C SWAP2 SWAP1 PUSH2 0x14A0 JUMP JUMPDEST PUSH1 0x40 MLOAD DUP1 SWAP2 SUB SWAP1 LOG1 POP POP JUMP JUMPDEST PUSH2 0x760 PUSH2 0xFFB JUMP JUMPDEST PUSH1 0x4 DUP1 PUSH1 0x5 DUP2 GT ISZERO PUSH2 0x775 JUMPI PUSH2 0x774 PUSH2 0x14B9 JUMP JUMPDEST JUMPDEST PUSH0 PUSH1 0x14 SWAP1 SLOAD SWAP1 PUSH2 0x100 EXP SWAP1 DIV PUSH1 0xFF AND PUSH1 0x5 DUP2 GT ISZERO PUSH2 0x796 JUMPI PUSH2 0x795 PUSH2 0x14B9 JUMP JUMPDEST JUMPDEST EQ PUSH2 0x7D6 JUMPI PUSH1 0x40 MLOAD PUSH32 0x8C379A000000000000000000000000000000000000000000000000000000000 DUP2 MSTORE PUSH1 0x4 ADD PUSH2 0x7CD SWAP1 PUSH2 0x15DE JUMP JUMPDEST PUSH1 0x40 MLOAD DUP1 SWAP2 SUB SWAP1 REVERT JUMPDEST PUSH1 0x5 PUSH0 PUSH1 0x14 PUSH2 0x100 EXP DUP2 SLOAD DUP2 PUSH1 0xFF MUL NOT AND SWAP1 DUP4 PUSH1 0x5 DUP2 GT ISZERO PUSH2 0x7FB JUMPI PUSH2 0x7FA PUSH2 0x14B9 JUMP JUMPDEST JUMPDEST MUL OR SWAP1 SSTORE POP PUSH32 0xA97A4EE45751E2ABF3E4FC8946939630B11B371EA8AE39CCDC3056E98F5CC3F PUSH1 0x4 PUSH1 0x5 PUSH1 0x40 MLOAD PUSH2 0x833 SWAP3 SWAP2 SWAP1 PUSH2 0x1AD1 JUMP JUMPDEST PUSH1 0x40 MLOAD DUP1 SWAP2 SUB SWAP1 LOG1 PUSH0 DUP1 JUMPDEST PUSH1 0x1 DUP1 SLOAD SWAP1 POP DUP2 LT ISZERO PUSH2 0x8B1 JUMPI DUP2 PUSH1 0x1 DUP3 DUP2 SLOAD DUP2 LT PUSH2 0x860 JUMPI PUSH2 0x85F PUSH2 0x1734 JUMP JUMPDEST JUMPDEST SWAP1 PUSH0 MSTORE PUSH1 0x20 PUSH0 KECCAK256 SWAP1 PUSH1 0x2 MUL ADD PUSH1 0x1 ADD SLOAD GT ISZERO PUSH2 0x8A4 JUMPI PUSH1 0x1 DUP2 DUP2 SLOAD DUP2 LT PUSH2 0x88A JUMPI PUSH2 0x889 PUSH2 0x1734 JUMP JUMPDEST JUMPDEST SWAP1 PUSH0 MSTORE PUSH1 0x20 PUSH0 KECCAK256 SWAP1 PUSH1 0x2 MUL ADD PUSH1 0x1 ADD SLOAD SWAP2 POP DUP1 PUSH1 0x3 DUP2 SWAP1 SSTORE POP JUMPDEST DUP1 DUP1 PUSH1 0x1 ADD SWAP2 POP POP PUSH2 0x83E JUMP JUMPDEST POP POP POP JUMP JUMPDEST PUSH0 DUP1 PUSH1 0x5 DUP2 GT ISZERO PUSH2 0x8CA JUMPI PUSH2 0x8C9 PUSH2 0x14B9 JUMP JUMPDEST JUMPDEST PUSH0 PUSH1 0x14 SWAP1 SLOAD SWAP1 PUSH2 0x100 EXP SWAP1 DIV PUSH1 0xFF AND PUSH1 0x5 DUP2 GT ISZERO PUSH2 0x8EB JUMPI PUSH2 0x8EA PUSH2 0x14B9 JUMP JUMPDEST JUMPDEST EQ PUSH2 0x92B JUMPI PUSH1 0x40 MLOAD PUSH32 0x8C379A000000000000000000000000000000000000000000000000000000000 DUP2 MSTORE PUSH1 0x4 ADD PUSH2 0x922 SWAP1 PUSH2 0x15DE JUMP JUMPDEST PUSH1 0x40 MLOAD DUP1 SWAP2 SUB SWAP1 REVERT JUMPDEST PUSH2 0x933 PUSH2 0xFFB JUMP JUMPDEST PUSH1 0x2 PUSH0 DUP4 PUSH20 0xFFFFFFFFFFFFFFFFFFFFFFFFFFFFFFFFFFFFFFFF AND PUSH20 0xFFFFFFFFFFFFFFFFFFFFFFFFFFFFFFFFFFFFFFFF AND DUP2 MSTORE PUSH1 0x20 ADD SWAP1 DUP2 MSTORE PUSH1 0x20 ADD PUSH0 KECCAK256 PUSH0 ADD PUSH0 SWAP1 SLOAD SWAP1 PUSH2 0x100 EXP SWAP1 DIV PUSH1 0xFF AND ISZERO PUSH2 0x9BF JUMPI PUSH1 0x40 MLOAD PUSH32 0x8C379A000000000000000000000000000000000000000000000000000000000 DUP2 MSTORE PUSH1 0x4 ADD PUSH2 0x9B6 SWAP1 PUSH2 0x1B42 JUMP JUMPDEST PUSH1 0x40 MLOAD DUP1 SWAP2 SUB SWAP1 REVERT JUMPDEST PUSH1 0x1 PUSH1 0x2 PUSH0 DUP5 PUSH20 0xFFFFFFFFFFFFFFFFFFFFFFFFFFFFFFFFFFFFFFFF AND PUSH20 0xFFFFFFFFFFFFFFFFFFFFFFFFFFFFFFFFFFFFFFFF AND DUP2 MSTORE PUSH1 0x20 ADD SWAP1 DUP2 MSTORE PUSH1 0x20 ADD PUSH0 KECCAK256 PUSH0 ADD PUSH0 PUSH2 0x100 EXP DUP2 SLOAD DUP2 PUSH1 0xFF MUL NOT AND SWAP1 DUP4 ISZERO ISZERO MUL OR SWAP1 SSTORE POP DUP2 PUSH20 0xFFFFFFFFFFFFFFFFFFFFFFFFFFFFFFFFFFFFFFFF AND PUSH32 0xB6BE2187D059CC2A55FE29E0E503B566E1E0F8C8780096E185429350ACFFD3DD PUSH1 0x40 MLOAD PUSH1 0x40 MLOAD DUP1 SWAP2 SUB SWAP1 LOG2 POP POP JUMP JUMPDEST PUSH2 0xA65 PUSH2 0xFFB JUMP JUMPDEST PUSH1 0x1 DUP1 PUSH1 0x5 DUP2 GT ISZERO PUSH2 0xA7A JUMPI PUSH2 0xA79 PUSH2 0x14B9 JUMP JUMPDEST JUMPDEST PUSH0 PUSH1 0x14 SWAP1 SLOAD SWAP1 PUSH2 0x100 EXP SWAP1 DIV PUSH1 0xFF AND PUSH1 0x5 DUP2 GT ISZERO PUSH2 0xA9B JUMPI PUSH2 0xA9A PUSH2 0x14B9 JUMP JUMPDEST JUMPDEST EQ PUSH2 0xADB JUMPI PUSH1 0x40 MLOAD PUSH32 0x8C379A000000000000000000000000000000000000000000000000000000000 DUP2 MSTORE PUSH1 0x4 ADD PUSH2 0xAD2 SWAP1 PUSH2 0x15DE JUMP JUMPDEST PUSH1 0x40 MLOAD DUP1 SWAP2 SUB SWAP1 REVERT JUMPDEST PUSH1 0x2 PUSH0 PUSH1 0x14 PUSH2 0x100 EXP DUP2 SLOAD DUP2 PUSH1 0xFF MUL NOT AND SWAP1 DUP4 PUSH1 0x5 DUP2 GT ISZERO PUSH2 0xB00 JUMPI PUSH2 0xAFF PUSH2 0x14B9 JUMP JUMPDEST JUMPDEST MUL OR SWAP1 SSTORE POP PUSH32 0xA97A4EE45751E2ABF3E4FC8946939630B11B371EA8AE39CCDC3056E98F5CC3F PUSH1 0x1 PUSH1 0x2 PUSH1 0x40 MLOAD PUSH2 0xB38 SWAP3 SWAP2 SWAP1 PUSH2 0x1AD1 JUMP JUMPDEST PUSH1 0x40 MLOAD DUP1 SWAP2 SUB SWAP1 LOG1 POP JUMP JUMPDEST PUSH2 0xB4B PUSH2 0xFFB JUMP JUMPDEST PUSH2 0xB54 PUSH0 PUSH2 0x1082 JUMP JUMPDEST JUMP JUMPDEST PUSH0 DUP1 PUSH0 SWAP1 SLOAD SWAP1 PUSH2 0x100 EXP SWAP1 DIV PUSH20 0xFFFFFFFFFFFFFFFFFFFFFFFFFFFFFFFFFFFFFFFF AND SWAP1 POP SWAP1 JUMP JUMPDEST PUSH0 PUSH1 0x5 DUP1 PUSH1 0x5 DUP2 GT ISZERO PUSH2 0xB93 JUMPI PUSH2 0xB92 PUSH2 0x14B9 JUMP JUMPDEST JUMPDEST PUSH0 PUSH1 0x14 SWAP1 SLOAD SWAP1 PUSH2 0x100 EXP SWAP1 DIV PUSH1 0xFF AND PUSH1 0x5 DUP2 GT ISZERO PUSH2 0xBB4 JUMPI PUSH2 0xBB3 PUSH2 0x14B9 JUMP JUMPDEST JUMPDEST EQ PUSH2 0xBF4 JUMPI PUSH1 0x40 MLOAD PUSH32 0x8C379A000000000000000000000000000000000000000000000000000000000 DUP2 MSTORE PUSH1 0x4 ADD PUSH2 0xBEB SWAP1 PUSH2 0x15DE JUMP JUMPDEST PUSH1 0x40 MLOAD DUP1 SWAP2 SUB SWAP1 REVERT JUMPDEST PUSH1 0x5 DUP1 DUP2 GT ISZERO PUSH2 0xC07 JUMPI PUSH2 0xC06 PUSH2 0x14B9 JUMP JUMPDEST JUMPDEST PUSH0 PUSH1 0x14 SWAP1 SLOAD SWAP1 PUSH2 0x100 EXP SWAP1 DIV PUSH1 0xFF AND PUSH1 0x5 DUP2 GT ISZERO PUSH2 0xC28 JUMPI PUSH2 0xC27 PUSH2 0x14B9 JUMP JUMPDEST JUMPDEST EQ PUSH2 0xC68 JUMPI PUSH1 0x40 MLOAD PUSH32 0x8C379A000000000000000000000000000000000000000000000000000000000 DUP2 MSTORE PUSH1 0x4 ADD PUSH2 0xC5F SWAP1 PUSH2 0x1BAA JUMP JUMPDEST PUSH1 0x40 MLOAD DUP1 SWAP2 SUB SWAP1 REVERT JUMPDEST PUSH1 0x3 SLOAD SWAP2 POP POP SWAP1 JUMP JUMPDEST PUSH0 PUSH1 0x14 SWAP1 SLOAD SWAP1 PUSH2 0x100 EXP SWAP1 DIV PUSH1 0xFF AND DUP2 JUMP JUMPDEST PUSH1 0x2 PUSH1 0x20 MSTORE DUP1 PUSH0 MSTORE PUSH1 0x40 PUSH0 KECCAK256 PUSH0 SWAP2 POP SWAP1 POP DUP1 PUSH0 ADD PUSH0 SWAP1 SLOAD SWAP1 PUSH2 0x100 EXP SWAP1 DIV PUSH1 0xFF AND SWAP1 DUP1 PUSH0 ADD PUSH1 0x1 SWAP1 SLOAD SWAP1 PUSH2 0x100 EXP SWAP1 DIV PUSH1 0xFF AND SWAP1 DUP1 PUSH1 0x1 ADD SLOAD SWAP1 POP DUP4 JUMP JUMPDEST PUSH2 0xCC9 PUSH2 0xFFB JUMP JUMPDEST PUSH1 0x3 DUP1 PUSH1 0x5 DUP2 GT ISZERO PUSH2 0xCDE JUMPI PUSH2 0xCDD PUSH2 0x14B9 JUMP JUMPDEST JUMPDEST PUSH0 PUSH1 0x14 SWAP1 SLOAD SWAP1 PUSH2 0x100 EXP SWAP1 DIV PUSH1 0xFF AND PUSH1 0x5 DUP2 GT ISZERO PUSH2 0xCFF JUMPI PUSH2 0xCFE PUSH2 0x14B9 JUMP JUMPDEST JUMPDEST EQ PUSH2 0xD3F JUMPI PUSH1 0x40 MLOAD PUSH32 0x8C379A000000000000000000000000000000000000000000000000000000000 DUP2 MSTORE PUSH1 0x4 ADD PUSH2 0xD36 SWAP1 PUSH2 0x15DE JUMP JUMPDEST PUSH1 0x40 MLOAD DUP1 SWAP2 SUB SWAP1 REVERT JUMPDEST PUSH1 0x4 PUSH0 PUSH1 0x14 PUSH2 0x100 EXP DUP2 SLOAD DUP2 PUSH1 0xFF MUL NOT AND SWAP1 DUP4 PUSH1 0x5 DUP2 GT ISZERO PUSH2 0xD64 JUMPI PUSH2 0xD63 PUSH2 0x14B9 JUMP JUMPDEST JUMPDEST MUL OR SWAP1 SSTORE POP PUSH32 0xA97A4EE45751E2ABF3E4FC8946939630B11B371EA8AE39CCDC3056E98F5CC3F PUSH1 0x3 PUSH1 0x4 PUSH1 0x40 MLOAD PUSH2 0xD9C SWAP3 SWAP2 SWAP1 PUSH2 0x1AD1 JUMP JUMPDEST PUSH1 0x40 MLOAD DUP1 SWAP2 SUB SWAP1 LOG1 POP JUMP JUMPDEST PUSH1 0x3 SLOAD DUP2 JUMP JUMPDEST PUSH2 0xDB5 PUSH2 0xFFB JUMP JUMPDEST PUSH0 DUP1 PUSH1 0x5 DUP2 GT ISZERO PUSH2 0xDC9 JUMPI PUSH2 0xDC8 PUSH2 0x14B9 JUMP JUMPDEST JUMPDEST PUSH0 PUSH1 0x14 SWAP1 SLOAD SWAP1 PUSH2 0x100 EXP SWAP1 DIV PUSH1 0xFF AND PUSH1 0x5 DUP2 GT ISZERO PUSH2 0xDEA JUMPI PUSH2 0xDE9 PUSH2 0x14B9 JUMP JUMPDEST JUMPDEST EQ PUSH2 0xE2A JUMPI PUSH1 0x40 MLOAD PUSH32 0x8C379A000000000000000000000000000000000000000000000000000000000 DUP2 MSTORE PUSH1 0x4 ADD PUSH2 0xE21 SWAP1 PUSH2 0x15DE JUMP JUMPDEST PUSH1 0x40 MLOAD DUP1 SWAP2 SUB SWAP1 REVERT JUMPDEST PUSH1 0x1 PUSH0 PUSH1 0x14 PUSH2 0x100 EXP DUP2 SLOAD DUP2 PUSH1 0xFF MUL NOT AND SWAP1 DUP4 PUSH1 0x5 DUP2 GT ISZERO PUSH2 0xE4F JUMPI PUSH2 0xE4E PUSH2 0x14B9 JUMP JUMPDEST JUMPDEST MUL OR SWAP1 SSTORE POP PUSH32 0xA97A4EE45751E2ABF3E4FC8946939630B11B371EA8AE39CCDC3056E98F5CC3F PUSH0 PUSH1 0x1 PUSH1 0x40 MLOAD PUSH2 0xE86 SWAP3 SWAP2 SWAP1 PUSH2 0x1AD1 JUMP JUMPDEST PUSH1 0x40 MLOAD DUP1 SWAP2 SUB SWAP1 LOG1 POP JUMP JUMPDEST PUSH2 0xE99 PUSH2 0xFFB JUMP JUMPDEST PUSH1 0x2 DUP1 PUSH1 0x5 DUP2 GT ISZERO PUSH2 0xEAE JUMPI PUSH2 0xEAD PUSH2 0x14B9 JUMP JUMPDEST JUMPDEST PUSH0 PUSH1 0x14 SWAP1 SLOAD SWAP1 PUSH2 0x100 EXP SWAP1 DIV PUSH1 0xFF AND PUSH1 0x5 DUP2 GT ISZERO PUSH2 0xECF JUMPI PUSH2 0xECE PUSH2 0x14B9 JUMP JUMPDEST JUMPDEST EQ PUSH2 0xF0F JUMPI PUSH1 0x40 MLOAD PUSH32 0x8C379A000000000000000000000000000000000000000000000000000000000 DUP2 MSTORE PUSH1 0x4 ADD PUSH2 0xF06 SWAP1 PUSH2 0x15DE JUMP JUMPDEST PUSH1 0x40 MLOAD DUP1 SWAP2 SUB SWAP1 REVERT JUMPDEST PUSH1 0x3 PUSH0 PUSH1 0x14 PUSH2 0x100 EXP DUP2 SLOAD DUP2 PUSH1 0xFF MUL NOT AND SWAP1 DUP4 PUSH1 0x5 DUP2 GT ISZERO PUSH2 0xF34 JUMPI PUSH2 0xF33 PUSH2 0x14B9 JUMP JUMPDEST JUMPDEST MUL OR SWAP1 SSTORE POP PUSH32 0xA97A4EE45751E2ABF3E4FC8946939630B11B371EA8AE39CCDC3056E98F5CC3F PUSH1 0x2 PUSH1 0x3 PUSH1 0x40 MLOAD PUSH2 0xF6C SWAP3 SWAP2 SWAP1 PUSH2 0x1AD1 JUMP JUMPDEST PUSH1 0x40 MLOAD DUP1 SWAP2 SUB SWAP1 LOG1 POP JUMP JUMPDEST PUSH2 0xF7F PUSH2 0xFFB JUMP JUMPDEST PUSH0 PUSH20 0xFFFFFFFFFFFFFFFFFFFFFFFFFFFFFFFFFFFFFFFF AND DUP2 PUSH20 0xFFFFFFFFFFFFFFFFFFFFFFFFFFFFFFFFFFFFFFFF AND SUB PUSH2 0xFEF JUMPI PUSH0 PUSH1 0x40 MLOAD PUSH32 0x1E4FBDF700000000000000000000000000000000000000000000000000000000 DUP2 MSTORE PUSH1 0x4 ADD PUSH2 0xFE6 SWAP2 SWAP1 PUSH2 0x1487 JUMP JUMPDEST PUSH1 0x40 MLOAD DUP1 SWAP2 SUB SWAP1 REVERT JUMPDEST PUSH2 0xFF8 DUP2 PUSH2 0x1082 JUMP JUMPDEST POP JUMP JUMPDEST PUSH2 0x1003 PUSH2 0x1143 JUMP JUMPDEST PUSH20 0xFFFFFFFFFFFFFFFFFFFFFFFFFFFFFFFFFFFFFFFF AND PUSH2 0x1021 PUSH2 0xB56 JUMP JUMPDEST PUSH20 0xFFFFFFFFFFFFFFFFFFFFFFFFFFFFFFFFFFFFFFFF AND EQ PUSH2 0x1080 JUMPI PUSH2 0x1044 PUSH2 0x1143 JUMP JUMPDEST PUSH1 0x40 MLOAD PUSH32 0x118CDAA700000000000000000000000000000000000000000000000000000000 DUP2 MSTORE PUSH1 0x4 ADD PUSH2 0x1077 SWAP2 SWAP1 PUSH2 0x1487 JUMP JUMPDEST PUSH1 0x40 MLOAD DUP1 SWAP2 SUB SWAP1 REVERT JUMPDEST JUMP JUMPDEST PUSH0 DUP1 PUSH0 SWAP1 SLOAD SWAP1 PUSH2 0x100 EXP SWAP1 DIV PUSH20 0xFFFFFFFFFFFFFFFFFFFFFFFFFFFFFFFFFFFFFFFF AND SWAP1 POP DUP2 PUSH0 DUP1 PUSH2 0x100 EXP DUP2 SLOAD DUP2 PUSH20 0xFFFFFFFFFFFFFFFFFFFFFFFFFFFFFFFFFFFFFFFF MUL NOT AND SWAP1 DUP4 PUSH20 0xFFFFFFFFFFFFFFFFFFFFFFFFFFFFFFFFFFFFFFFF AND MUL OR SWAP1 SSTORE POP DUP2 PUSH20 0xFFFFFFFFFFFFFFFFFFFFFFFFFFFFFFFFFFFFFFFF AND DUP2 PUSH20 0xFFFFFFFFFFFFFFFFFFFFFFFFFFFFFFFFFFFFFFFF AND PUSH32 0x8BE0079C531659141344CD1FD0A4F28419497F9722A3DAAFE3B4186F6B6457E0 PUSH1 0x40 MLOAD PUSH1 0x40 MLOAD DUP1 SWAP2 SUB SWAP1 LOG3 POP POP JUMP JUMPDEST PUSH0 CALLER SWAP1 POP SWAP1 JUMP JUMPDEST PUSH0 PUSH1 0x40 MLOAD SWAP1 POP SWAP1 JUMP JUMPDEST PUSH0 DUP1 REVERT JUMPDEST PUSH0 DUP1 REVERT JUMPDEST PUSH0 DUP2 SWAP1 POP SWAP2 SWAP1 POP JUMP JUMPDEST PUSH2 0x116D DUP2 PUSH2 0x115B JUMP JUMPDEST DUP2 EQ PUSH2 0x1177 JUMPI PUSH0 DUP1 REVERT JUMPDEST POP JUMP JUMPDEST PUSH0 DUP2 CALLDATALOAD SWAP1 POP PUSH2 0x1188 DUP2 PUSH2 0x1164 JUMP JUMPDEST SWAP3 SWAP2 POP POP JUMP JUMPDEST PUSH0 PUSH1 0x20 DUP3 DUP5 SUB SLT ISZERO PUSH2 0x11A3 JUMPI PUSH2 0x11A2 PUSH2 0x1153 JUMP JUMPDEST JUMPDEST PUSH0 PUSH2 0x11B0 DUP5 DUP3 DUP6 ADD PUSH2 0x117A JUMP JUMPDEST SWAP2 POP POP SWAP3 SWAP2 POP POP JUMP JUMPDEST PUSH0 DUP2 MLOAD SWAP1 POP SWAP2 SWAP1 POP JUMP JUMPDEST PUSH0 DUP3 DUP3 MSTORE PUSH1 0x20 DUP3 ADD SWAP1 POP SWAP3 SWAP2 POP POP JUMP JUMPDEST PUSH0 JUMPDEST DUP4 DUP2 LT ISZERO PUSH2 0x11F0 JUMPI DUP1 DUP3 ADD MLOAD DUP2 DUP5 ADD MSTORE PUSH1 0x20 DUP2 ADD SWAP1 POP PUSH2 0x11D5 JUMP JUMPDEST PUSH0 DUP5 DUP5 ADD MSTORE POP POP POP POP JUMP JUMPDEST PUSH0 PUSH1 0x1F NOT PUSH1 0x1F DUP4 ADD AND SWAP1 POP SWAP2 SWAP1 POP JUMP JUMPDEST PUSH0 PUSH2 0x1215 DUP3 PUSH2 0x11B9 JUMP JUMPDEST PUSH2 0x121F DUP2 DUP6 PUSH2 0x11C3 JUMP JUMPDEST SWAP4 POP PUSH2 0x122F DUP2 DUP6 PUSH1 0x20 DUP7 ADD PUSH2 0x11D3 JUMP JUMPDEST PUSH2 0x1238 DUP2 PUSH2 0x11FB JUMP JUMPDEST DUP5 ADD SWAP2 POP POP SWAP3 SWAP2 POP POP JUMP JUMPDEST PUSH2 0x124C DUP2 PUSH2 0x115B JUMP JUMPDEST DUP3 MSTORE POP POP JUMP JUMPDEST PUSH0 PUSH1 0x40 DUP3 ADD SWAP1 POP DUP2 DUP2 SUB PUSH0 DUP4 ADD MSTORE PUSH2 0x126A DUP2 DUP6 PUSH2 0x120B JUMP JUMPDEST SWAP1 POP PUSH2 0x1279 PUSH1 0x20 DUP4 ADD DUP5 PUSH2 0x1243 JUMP JUMPDEST SWAP4 SWAP3 POP POP POP JUMP JUMPDEST PUSH0 DUP1 REVERT JUMPDEST PUSH0 DUP1 REVERT JUMPDEST PUSH32 0x4E487B7100000000000000000000000000000000000000000000000000000000 PUSH0 MSTORE PUSH1 0x41 PUSH1 0x4 MSTORE PUSH1 0x24 PUSH0 REVERT JUMPDEST PUSH2 0x12BE DUP3 PUSH2 0x11FB JUMP JUMPDEST DUP2 ADD DUP2 DUP2 LT PUSH8 0xFFFFFFFFFFFFFFFF DUP3 GT OR ISZERO PUSH2 0x12DD JUMPI PUSH2 0x12DC PUSH2 0x1288 JUMP JUMPDEST JUMPDEST DUP1 PUSH1 0x40 MSTORE POP POP POP JUMP JUMPDEST PUSH0 PUSH2 0x12EF PUSH2 0x114A JUMP JUMPDEST SWAP1 POP PUSH2 0x12FB DUP3 DUP3 PUSH2 0x12B5 JUMP JUMPDEST SWAP2 SWAP1 POP JUMP JUMPDEST PUSH0 PUSH8 0xFFFFFFFFFFFFFFFF DUP3 GT ISZERO PUSH2 0x131A JUMPI PUSH2 0x1319 PUSH2 0x1288 JUMP JUMPDEST JUMPDEST PUSH2 0x1323 DUP3 PUSH2 0x11FB JUMP JUMPDEST SWAP1 POP PUSH1 0x20 DUP2 ADD SWAP1 POP SWAP2 SWAP1 POP JUMP JUMPDEST DUP3 DUP2 DUP4 CALLDATACOPY PUSH0 DUP4 DUP4 ADD MSTORE POP POP POP JUMP JUMPDEST PUSH0 PUSH2 0x1350 PUSH2 0x134B DUP5 PUSH2 0x1300 JUMP JUMPDEST PUSH2 0x12E6 JUMP JUMPDEST SWAP1 POP DUP3 DUP2 MSTORE PUSH1 0x20 DUP2 ADD DUP5 DUP5 DUP5 ADD GT ISZERO PUSH2 0x136C JUMPI PUSH2 0x136B PUSH2 0x1284 JUMP JUMPDEST JUMPDEST PUSH2 0x1377 DUP5 DUP3 DUP6 PUSH2 0x1330 JUMP JUMPDEST POP SWAP4 SWAP3 POP POP POP JUMP JUMPDEST PUSH0 DUP3 PUSH1 0x1F DUP4 ADD SLT PUSH2 0x1393 JUMPI PUSH2 0x1392 PUSH2 0x1280 JUMP JUMPDEST JUMPDEST DUP2 CALLDATALOAD PUSH2 0x13A3 DUP5 DUP3 PUSH1 0x20 DUP7 ADD PUSH2 0x133E JUMP JUMPDEST SWAP2 POP POP SWAP3 SWAP2 POP POP JUMP JUMPDEST PUSH0 PUSH1 0x20 DUP3 DUP5 SUB SLT ISZERO PUSH2 0x13C1 JUMPI PUSH2 0x13C0 PUSH2 0x1153 JUMP JUMPDEST JUMPDEST PUSH0 DUP3 ADD CALLDATALOAD PUSH8 0xFFFFFFFFFFFFFFFF DUP2 GT ISZERO PUSH2 0x13DE JUMPI PUSH2 0x13DD PUSH2 0x1157 JUMP JUMPDEST JUMPDEST PUSH2 0x13EA DUP5 DUP3 DUP6 ADD PUSH2 0x137F JUMP JUMPDEST SWAP2 POP POP SWAP3 SWAP2 POP POP JUMP JUMPDEST PUSH0 PUSH20 0xFFFFFFFFFFFFFFFFFFFFFFFFFFFFFFFFFFFFFFFF DUP3 AND SWAP1 POP SWAP2 SWAP1 POP JUMP JUMPDEST PUSH0 PUSH2 0x141C DUP3 PUSH2 0x13F3 JUMP JUMPDEST SWAP1 POP SWAP2 SWAP1 POP JUMP JUMPDEST PUSH2 0x142C DUP2 PUSH2 0x1412 JUMP JUMPDEST DUP2 EQ PUSH2 0x1436 JUMPI PUSH0 DUP1 REVERT JUMPDEST POP JUMP JUMPDEST PUSH0 DUP2 CALLDATALOAD SWAP1 POP PUSH2 0x1447 DUP2 PUSH2 0x1423 JUMP JUMPDEST SWAP3 SWAP2 POP POP JUMP JUMPDEST PUSH0 PUSH1 0x20 DUP3 DUP5 SUB SLT ISZERO PUSH2 0x1462 JUMPI PUSH2 0x1461 PUSH2 0x1153 JUMP JUMPDEST JUMPDEST PUSH0 PUSH2 0x146F DUP5 DUP3 DUP6 ADD PUSH2 0x1439 JUMP JUMPDEST SWAP2 POP POP SWAP3 SWAP2 POP POP JUMP JUMPDEST PUSH2 0x1481 DUP2 PUSH2 0x1412 JUMP JUMPDEST DUP3 MSTORE POP POP JUMP JUMPDEST PUSH0 PUSH1 0x20 DUP3 ADD SWAP1 POP PUSH2 0x149A PUSH0 DUP4 ADD DUP5 PUSH2 0x1478 JUMP JUMPDEST SWAP3 SWAP2 POP POP JUMP JUMPDEST PUSH0 PUSH1 0x20 DUP3 ADD SWAP1 POP PUSH2 0x14B3 PUSH0 DUP4 ADD DUP5 PUSH2 0x1243 JUMP JUMPDEST SWAP3 SWAP2 POP POP JUMP JUMPDEST PUSH32 0x4E487B7100000000000000000000000000000000000000000000000000000000 PUSH0 MSTORE PUSH1 0x21 PUSH1 0x4 MSTORE PUSH1 0x24 PUSH0 REVERT JUMPDEST PUSH1 0x6 DUP2 LT PUSH2 0x14F7 JUMPI PUSH2 0x14F6 PUSH2 0x14B9 JUMP JUMPDEST JUMPDEST POP JUMP JUMPDEST PUSH0 DUP2 SWAP1 POP PUSH2 0x1507 DUP3 PUSH2 0x14E6 JUMP JUMPDEST SWAP2 SWAP1 POP JUMP JUMPDEST PUSH0 PUSH2 0x1516 DUP3 PUSH2 0x14FA JUMP JUMPDEST SWAP1 POP SWAP2 SWAP1 POP JUMP JUMPDEST PUSH2 0x1526 DUP2 PUSH2 0x150C JUMP JUMPDEST DUP3 MSTORE POP POP JUMP JUMPDEST PUSH0 PUSH1 0x20 DUP3 ADD SWAP1 POP PUSH2 0x153F PUSH0 DUP4 ADD DUP5 PUSH2 0x151D JUMP JUMPDEST SWAP3 SWAP2 POP POP JUMP JUMPDEST PUSH0 DUP2 ISZERO ISZERO SWAP1 POP SWAP2 SWAP1 POP JUMP JUMPDEST PUSH2 0x1559 DUP2 PUSH2 0x1545 JUMP JUMPDEST DUP3 MSTORE POP POP JUMP JUMPDEST PUSH0 PUSH1 0x60 DUP3 ADD SWAP1 POP PUSH2 0x1572 PUSH0 DUP4 ADD DUP7 PUSH2 0x1550 JUMP JUMPDEST PUSH2 0x157F PUSH1 0x20 DUP4 ADD DUP6 PUSH2 0x1550 JUMP JUMPDEST PUSH2 0x158C PUSH1 0x40 DUP4 ADD DUP5 PUSH2 0x1243 JUMP JUMPDEST SWAP5 SWAP4 POP POP POP POP JUMP JUMPDEST PUSH32 0x496E76616C696420776F726B666C6F7720737461747573000000000000000000 PUSH0 DUP3 ADD MSTORE POP JUMP JUMPDEST PUSH0 PUSH2 0x15C8 PUSH1 0x17 DUP4 PUSH2 0x11C3 JUMP JUMPDEST SWAP2 POP PUSH2 0x15D3 DUP3 PUSH2 0x1594 JUMP JUMPDEST PUSH1 0x20 DUP3 ADD SWAP1 POP SWAP2 SWAP1 POP JUMP JUMPDEST PUSH0 PUSH1 0x20 DUP3 ADD SWAP1 POP DUP2 DUP2 SUB PUSH0 DUP4 ADD MSTORE PUSH2 0x15F5 DUP2 PUSH2 0x15BC JUMP JUMPDEST SWAP1 POP SWAP2 SWAP1 POP JUMP JUMPDEST PUSH32 0x566F746572206973206E6F742072656769737465726564000000000000000000 PUSH0 DUP3 ADD MSTORE POP JUMP JUMPDEST PUSH0 PUSH2 0x1630 PUSH1 0x17 DUP4 PUSH2 0x11C3 JUMP JUMPDEST SWAP2 POP PUSH2 0x163B DUP3 PUSH2 0x15FC JUMP JUMPDEST PUSH1 0x20 DUP3 ADD SWAP1 POP SWAP2 SWAP1 POP JUMP JUMPDEST PUSH0 PUSH1 0x20 DUP3 ADD SWAP1 POP DUP2 DUP2 SUB PUSH0 DUP4 ADD MSTORE PUSH2 0x165D DUP2 PUSH2 0x1624 JUMP JUMPDEST SWAP1 POP SWAP2 SWAP1 POP JUMP JUMPDEST PUSH32 0x566F7465722068617320616C726561647920766F746564000000000000000000 PUSH0 DUP3 ADD MSTORE POP JUMP JUMPDEST PUSH0 PUSH2 0x1698 PUSH1 0x17 DUP4 PUSH2 0x11C3 JUMP JUMPDEST SWAP2 POP PUSH2 0x16A3 DUP3 PUSH2 0x1664 JUMP JUMPDEST PUSH1 0x20 DUP3 ADD SWAP1 POP SWAP2 SWAP1 POP JUMP JUMPDEST PUSH0 PUSH1 0x20 DUP3 ADD SWAP1 POP DUP2 DUP2 SUB PUSH0 DUP4 ADD MSTORE PUSH2 0x16C5 DUP2 PUSH2 0x168C JUMP JUMPDEST SWAP1 POP SWAP2 SWAP1 POP JUMP JUMPDEST PUSH32 0x496E76616C69642070726F706F73616C20494400000000000000000000000000 PUSH0 DUP3 ADD MSTORE POP JUMP JUMPDEST PUSH0 PUSH2 0x1700 PUSH1 0x13 DUP4 PUSH2 0x11C3 JUMP JUMPDEST SWAP2 POP PUSH2 0x170B DUP3 PUSH2 0x16CC JUMP JUMPDEST PUSH1 0x20 DUP3 ADD SWAP1 POP SWAP2 SWAP1 POP JUMP JUMPDEST PUSH0 PUSH1 0x20 DUP3 ADD SWAP1 POP DUP2 DUP2 SUB PUSH0 DUP4 ADD MSTORE PUSH2 0x172D DUP2 PUSH2 0x16F4 JUMP JUMPDEST SWAP1 POP SWAP2 SWAP1 POP JUMP JUMPDEST PUSH32 0x4E487B7100000000000000000000000000000000000000000000000000000000 PUSH0 MSTORE PUSH1 0x32 PUSH1 0x4 MSTORE PUSH1 0x24 PUSH0 REVERT JUMPDEST PUSH32 0x4E487B7100000000000000000000000000000000000000000000000000000000 PUSH0 MSTORE PUSH1 0x11 PUSH1 0x4 MSTORE PUSH1 0x24 PUSH0 REVERT JUMPDEST PUSH0 PUSH2 0x1798 DUP3 PUSH2 0x115B JUMP JUMPDEST SWAP2 POP PUSH32 0xFFFFFFFFFFFFFFFFFFFFFFFFFFFFFFFFFFFFFFFFFFFFFFFFFFFFFFFFFFFFFFFF DUP3 SUB PUSH2 0x17CA JUMPI PUSH2 0x17C9 PUSH2 0x1761 JUMP JUMPDEST JUMPDEST PUSH1 0x1 DUP3 ADD SWAP1 POP SWAP2 SWAP1 POP JUMP JUMPDEST PUSH32 0x4E487B7100000000000000000000000000000000000000000000000000000000 PUSH0 MSTORE PUSH1 0x22 PUSH1 0x4 MSTORE PUSH1 0x24 PUSH0 REVERT JUMPDEST PUSH0 PUSH1 0x2 DUP3 DIV SWAP1 POP PUSH1 0x1 DUP3 AND DUP1 PUSH2 0x1819 JUMPI PUSH1 0x7F DUP3 AND SWAP2 POP JUMPDEST PUSH1 0x20 DUP3 LT DUP2 SUB PUSH2 0x182C JUMPI PUSH2 0x182B PUSH2 0x17D5 JUMP JUMPDEST JUMPDEST POP SWAP2 SWAP1 POP JUMP JUMPDEST PUSH0 DUP2 SWAP1 POP DUP2 PUSH0 MSTORE PUSH1 0x20 PUSH0 KECCAK256 SWAP1 POP SWAP2 SWAP1 POP JUMP JUMPDEST PUSH0 PUSH1 0x20 PUSH1 0x1F DUP4 ADD DIV SWAP1 POP SWAP2 SWAP1 POP JUMP JUMPDEST PUSH0 DUP3 DUP3 SHL SWAP1 POP SWAP3 SWAP2 POP POP JUMP JUMPDEST PUSH0 PUSH1 0x8 DUP4 MUL PUSH2 0x188E PUSH32 0xFFFFFFFFFFFFFFFFFFFFFFFFFFFFFFFFFFFFFFFFFFFFFFFFFFFFFFFFFFFFFFFF DUP3 PUSH2 0x1853 JUMP JUMPDEST PUSH2 0x1898 DUP7 DUP4 PUSH2 0x1853 JUMP JUMPDEST SWAP6 POP DUP1 NOT DUP5 AND SWAP4 POP DUP1 DUP7 AND DUP5 OR SWAP3 POP POP POP SWAP4 SWAP3 POP POP POP JUMP JUMPDEST PUSH0 DUP2 SWAP1 POP SWAP2 SWAP1 POP JUMP JUMPDEST PUSH0 PUSH2 0x18D3 PUSH2 0x18CE PUSH2 0x18C9 DUP5 PUSH2 0x115B JUMP JUMPDEST PUSH2 0x18B0 JUMP JUMPDEST PUSH2 0x115B JUMP JUMPDEST SWAP1 POP SWAP2 SWAP1 POP JUMP JUMPDEST PUSH0 DUP2 SWAP1 POP SWAP2 SWAP1 POP JUMP JUMPDEST PUSH2 0x18EC DUP4 PUSH2 0x18B9 JUMP JUMPDEST PUSH2 0x1900 PUSH2 0x18F8 DUP3 PUSH2 0x18DA JUMP JUMPDEST DUP5 DUP5 SLOAD PUSH2 0x185F JUMP JUMPDEST DUP3 SSTORE POP POP POP POP JUMP JUMPDEST PUSH0 SWAP1 JUMP JUMPDEST PUSH2 0x1914 PUSH2 0x1908 JUMP JUMPDEST PUSH2 0x191F DUP2 DUP5 DUP5 PUSH2 0x18E3 JUMP JUMPDEST POP POP POP JUMP JUMPDEST JUMPDEST DUP2 DUP2 LT ISZERO PUSH2 0x1942 JUMPI PUSH2 0x1937 PUSH0 DUP3 PUSH2 0x190C JUMP JUMPDEST PUSH1 0x1 DUP2 ADD SWAP1 POP PUSH2 0x1925 JUMP JUMPDEST POP POP JUMP JUMPDEST PUSH1 0x1F DUP3 GT ISZERO PUSH2 0x1987 JUMPI PUSH2 0x1958 DUP2 PUSH2 0x1832 JUMP JUMPDEST PUSH2 0x1961 DUP5 PUSH2 0x1844 JUMP JUMPDEST DUP2 ADD PUSH1 0x20 DUP6 LT ISZERO PUSH2 0x1970 JUMPI DUP2 SWAP1 POP JUMPDEST PUSH2 0x1984 PUSH2 0x197C DUP6 PUSH2 0x1844 JUMP JUMPDEST DUP4 ADD DUP3 PUSH2 0x1924 JUMP JUMPDEST POP POP JUMPDEST POP POP POP JUMP JUMPDEST PUSH0 DUP3 DUP3 SHR SWAP1 POP SWAP3 SWAP2 POP POP JUMP JUMPDEST PUSH0 PUSH2 0x19A7 PUSH0 NOT DUP5 PUSH1 0x8 MUL PUSH2 0x198C JUMP JUMPDEST NOT DUP1 DUP4 AND SWAP2 POP POP SWAP3 SWAP2 POP POP JUMP JUMPDEST PUSH0 PUSH2 0x19BF DUP4 DUP4 PUSH2 0x1998 JUMP JUMPDEST SWAP2 POP DUP3 PUSH1 0x2 MUL DUP3 OR SWAP1 POP SWAP3 SWAP2 POP POP JUMP JUMPDEST PUSH2 0x19D8 DUP3 PUSH2 0x11B9 JUMP JUMPDEST PUSH8 0xFFFFFFFFFFFFFFFF DUP2 GT ISZERO PUSH2 0x19F1 JUMPI PUSH2 0x19F0 PUSH2 0x1288 JUMP JUMPDEST JUMPDEST PUSH2 0x19FB DUP3 SLOAD PUSH2 0x1802 JUMP JUMPDEST PUSH2 0x1A06 DUP3 DUP3 DUP6 PUSH2 0x1946 JUMP JUMPDEST PUSH0 PUSH1 0x20 SWAP1 POP PUSH1 0x1F DUP4 GT PUSH1 0x1 DUP2 EQ PUSH2 0x1A37 JUMPI PUSH0 DUP5 ISZERO PUSH2 0x1A25 JUMPI DUP3 DUP8 ADD MLOAD SWAP1 POP JUMPDEST PUSH2 0x1A2F DUP6 DUP3 PUSH2 0x19B4 JUMP JUMPDEST DUP7 SSTORE POP PUSH2 0x1A96 JUMP JUMPDEST PUSH1 0x1F NOT DUP5 AND PUSH2 0x1A45 DUP7 PUSH2 0x1832 JUMP JUMPDEST PUSH0 JUMPDEST DUP3 DUP2 LT ISZERO PUSH2 0x1A6C JUMPI DUP5 DUP10 ADD MLOAD DUP3 SSTORE PUSH1 0x1 DUP3 ADD SWAP2 POP PUSH1 0x20 DUP6 ADD SWAP5 POP PUSH1 0x20 DUP2 ADD SWAP1 POP PUSH2 0x1A47 JUMP JUMPDEST DUP7 DUP4 LT ISZERO PUSH2 0x1A89 JUMPI DUP5 DUP10 ADD MLOAD PUSH2 0x1A85 PUSH1 0x1F DUP10 AND DUP3 PUSH2 0x1998 JUMP JUMPDEST DUP4 SSTORE POP JUMPDEST PUSH1 0x1 PUSH1 0x2 DUP9 MUL ADD DUP9 SSTORE POP POP POP JUMPDEST POP POP POP POP POP POP JUMP JUMPDEST PUSH0 PUSH2 0x1AA8 DUP3 PUSH2 0x115B JUMP JUMPDEST SWAP2 POP PUSH2 0x1AB3 DUP4 PUSH2 0x115B JUMP JUMPDEST SWAP3 POP DUP3 DUP3 SUB SWAP1 POP DUP2 DUP2 GT ISZERO PUSH2 0x1ACB JUMPI PUSH2 0x1ACA PUSH2 0x1761 JUMP JUMPDEST JUMPDEST SWAP3 SWAP2 POP POP JUMP JUMPDEST PUSH0 PUSH1 0x40 DUP3 ADD SWAP1 POP PUSH2 0x1AE4 PUSH0 DUP4 ADD DUP6 PUSH2 0x151D JUMP JUMPDEST PUSH2 0x1AF1 PUSH1 0x20 DUP4 ADD DUP5 PUSH2 0x151D JUMP JUMPDEST SWAP4 SWAP3 POP POP POP JUMP JUMPDEST PUSH32 0x566F74657220697320616C726561647920726567697374657265640000000000 PUSH0 DUP3 ADD MSTORE POP JUMP JUMPDEST PUSH0 PUSH2 0x1B2C PUSH1 0x1B DUP4 PUSH2 0x11C3 JUMP JUMPDEST SWAP2 POP PUSH2 0x1B37 DUP3 PUSH2 0x1AF8 JUMP JUMPDEST PUSH1 0x20 DUP3 ADD SWAP1 POP SWAP2 SWAP1 POP JUMP JUMPDEST PUSH0 PUSH1 0x20 DUP3 ADD SWAP1 POP DUP2 DUP2 SUB PUSH0 DUP4 ADD MSTORE PUSH2 0x1B59 DUP2 PUSH2 0x1B20 JUMP JUMPDEST SWAP1 POP SWAP2 SWAP1 POP JUMP JUMPDEST PUSH32 0x566F74696E67206973206E6F742074616C6C6965642079657400000000000000 PUSH0 DUP3 ADD MSTORE POP JUMP JUMPDEST PUSH0 PUSH2 0x1B94 PUSH1 0x19 DUP4 PUSH2 0x11C3 JUMP JUMPDEST SWAP2 POP PUSH2 0x1B9F DUP3 PUSH2 0x1B60 JUMP JUMPDEST PUSH1 0x20 DUP3 ADD SWAP1 POP SWAP2 SWAP1 POP JUMP JUMPDEST PUSH0 PUSH1 0x20 DUP3 ADD SWAP1 POP DUP2 DUP2 SUB PUSH0 DUP4 ADD MSTORE PUSH2 0x1BC1 DUP2 PUSH2 0x1B88 JUMP JUMPDEST SWAP1 POP SWAP2 SWAP1 POP JUMP INVALID LOG2 PUSH5 0x6970667358 0x22 SLT KECCAK256 SWAP11 PUSH4 0x47D5AC14 0xD8 0x23 0xD8 0x5D PUSH25 0xB9137B0177749EDF263E54D424CE041472B3C3F23C64736F6C PUSH4 0x43000816 STOP CALLER "
		},
		"gasEstimates": {
			"creation": {
				"codeDepositCost": "1433200",
				"executionCost": "infinite",
				"totalCost": "infinite"
			},
			"external": {
				"endProposalsRegistration()": "infinite",
				"endVotingSession()": "infinite",
				"getWinner()": "6980",
				"owner()": "2604",
				"proposals(uint256)": "infinite",
				"registerProposal(string)": "infinite",
				"registerVoter(address)": "infinite",
				"renounceOwnership()": "infinite",
				"startProposalsRegistration()": "infinite",
				"startVotingSession()": "infinite",
				"tallyVotes()": "infinite",
				"transferOwnership(address)": "infinite",
				"vote(uint256)": "infinite",
				"voters(address)": "infinite",
				"winningProposalId()": "2447",
				"workflowStatus()": "2649"
			}
		},
		"methodIdentifiers": {
			"endProposalsRegistration()": "6c297445",
			"endVotingSession()": "a7bfab16",
			"getWinner()": "8e7ea5b2",
			"owner()": "8da5cb5b",
			"proposals(uint256)": "013cf08b",
			"registerProposal(string)": "2f95355b",
			"registerVoter(address)": "38db6dd3",
			"renounceOwnership()": "715018a6",
			"startProposalsRegistration()": "e09b8c79",
			"startVotingSession()": "ee74c678",
			"tallyVotes()": "378a2178",
			"transferOwnership(address)": "f2fde38b",
			"vote(uint256)": "0121b93f",
			"voters(address)": "a3ec138d",
			"winningProposalId()": "c64963c5",
			"workflowStatus()": "a1edffa2"
		}
	},
	"abi": [
		{
			"inputs": [],
			"stateMutability": "nonpayable",
			"type": "constructor"
		},
		{
			"inputs": [
				{
					"internalType": "address",
					"name": "owner",
					"type": "address"
				}
			],
			"name": "OwnableInvalidOwner",
			"type": "error"
		},
		{
			"inputs": [
				{
					"internalType": "address",
					"name": "account",
					"type": "address"
				}
			],
			"name": "OwnableUnauthorizedAccount",
			"type": "error"
		},
		{
			"anonymous": false,
			"inputs": [
				{
					"indexed": true,
					"internalType": "address",
					"name": "previousOwner",
					"type": "address"
				},
				{
					"indexed": true,
					"internalType": "address",
					"name": "newOwner",
					"type": "address"
				}
			],
			"name": "OwnershipTransferred",
			"type": "event"
		},
		{
			"anonymous": false,
			"inputs": [
				{
					"indexed": false,
					"internalType": "uint256",
					"name": "proposalId",
					"type": "uint256"
				}
			],
			"name": "ProposalRegistered",
			"type": "event"
		},
		{
			"anonymous": false,
			"inputs": [
				{
					"indexed": true,
					"internalType": "address",
					"name": "voter",
					"type": "address"
				},
				{
					"indexed": false,
					"internalType": "uint256",
					"name": "proposalId",
					"type": "uint256"
				}
			],
			"name": "Voted",
			"type": "event"
		},
		{
			"anonymous": false,
			"inputs": [
				{
					"indexed": true,
					"internalType": "address",
					"name": "voterAddress",
					"type": "address"
				}
			],
			"name": "VoterRegistered",
			"type": "event"
		},
		{
			"anonymous": false,
			"inputs": [
				{
					"indexed": false,
					"internalType": "enum Voting.WorkflowStatus",
					"name": "previousStatus",
					"type": "uint8"
				},
				{
					"indexed": false,
					"internalType": "enum Voting.WorkflowStatus",
					"name": "newStatus",
					"type": "uint8"
				}
			],
			"name": "WorkflowStatusChange",
			"type": "event"
		},
		{
			"inputs": [],
			"name": "endProposalsRegistration",
			"outputs": [],
			"stateMutability": "nonpayable",
			"type": "function"
		},
		{
			"inputs": [],
			"name": "endVotingSession",
			"outputs": [],
			"stateMutability": "nonpayable",
			"type": "function"
		},
		{
			"inputs": [],
			"name": "getWinner",
			"outputs": [
				{
					"internalType": "uint256",
					"name": "",
					"type": "uint256"
				}
			],
			"stateMutability": "view",
			"type": "function"
		},
		{
			"inputs": [],
			"name": "owner",
			"outputs": [
				{
					"internalType": "address",
					"name": "",
					"type": "address"
				}
			],
			"stateMutability": "view",
			"type": "function"
		},
		{
			"inputs": [
				{
					"internalType": "uint256",
					"name": "",
					"type": "uint256"
				}
			],
			"name": "proposals",
			"outputs": [
				{
					"internalType": "string",
					"name": "description",
					"type": "string"
				},
				{
					"internalType": "uint256",
					"name": "voteCount",
					"type": "uint256"
				}
			],
			"stateMutability": "view",
			"type": "function"
		},
		{
			"inputs": [
				{
					"internalType": "string",
					"name": "_description",
					"type": "string"
				}
			],
			"name": "registerProposal",
			"outputs": [],
			"stateMutability": "nonpayable",
			"type": "function"
		},
		{
			"inputs": [
				{
					"internalType": "address",
					"name": "_voterAddress",
					"type": "address"
				}
			],
			"name": "registerVoter",
			"outputs": [],
			"stateMutability": "nonpayable",
			"type": "function"
		},
		{
			"inputs": [],
			"name": "renounceOwnership",
			"outputs": [],
			"stateMutability": "nonpayable",
			"type": "function"
		},
		{
			"inputs": [],
			"name": "startProposalsRegistration",
			"outputs": [],
			"stateMutability": "nonpayable",
			"type": "function"
		},
		{
			"inputs": [],
			"name": "startVotingSession",
			"outputs": [],
			"stateMutability": "nonpayable",
			"type": "function"
		},
		{
			"inputs": [],
			"name": "tallyVotes",
			"outputs": [],
			"stateMutability": "nonpayable",
			"type": "function"
		},
		{
			"inputs": [
				{
					"internalType": "address",
					"name": "newOwner",
					"type": "address"
				}
			],
			"name": "transferOwnership",
			"outputs": [],
			"stateMutability": "nonpayable",
			"type": "function"
		},
		{
			"inputs": [
				{
					"internalType": "uint256",
					"name": "_proposalId",
					"type": "uint256"
				}
			],
			"name": "vote",
			"outputs": [],
			"stateMutability": "nonpayable",
			"type": "function"
		},
		{
			"inputs": [
				{
					"internalType": "address",
					"name": "",
					"type": "address"
				}
			],
			"name": "voters",
			"outputs": [
				{
					"internalType": "bool",
					"name": "isRegistered",
					"type": "bool"
				},
				{
					"internalType": "bool",
					"name": "hasVoted",
					"type": "bool"
				},
				{
					"internalType": "uint256",
					"name": "votedProposalId",
					"type": "uint256"
				}
			],
			"stateMutability": "view",
			"type": "function"
		},
		{
			"inputs": [],
			"name": "winningProposalId",
			"outputs": [
				{
					"internalType": "uint256",
					"name": "",
					"type": "uint256"
				}
			],
			"stateMutability": "view",
			"type": "function"
		},
		{
			"inputs": [],
			"name": "workflowStatus",
			"outputs": [
				{
					"internalType": "enum Voting.WorkflowStatus",
					"name": "",
					"type": "uint8"
				}
			],
			"stateMutability": "view",
			"type": "function"
		}
	]
}